00COTAHIST.2023BOVESPA 20230801                                                                                                                                                                                                                      
012023080102EALT4       010ACO ALTONA  PN           R$  000000000084900000000008590000000000835000000000084900000000008460000000000838000000000085800012000000000000006400000000000005436500000000000000009999123100000010000000000000BREALTACNPR1137
012023080102GOLL4       010GOL         PN      N2   R$  000000000095100000000009640000000000926000000000094600000000009550000000000955000000000095614640000000000014929400000000014129255900000000000000009999123100000010000000000000BRGOLLACNPR4127
012023080102GRND3       010GRENDENE    ON      NM   R$  000000000075200000000007610000000000748000000000075600000000007540000000000754000000000075502525000000000000701700000000000530906700000000000000009999123100000010000000000000BRGRNDACNOR3170
012023080102GUAR3       010GUARARAPES  ON      NM   R$  000000000073200000000007470000000000715000000000073600000000007360000000000736000000000074206157000000000001856900000000001368309300000000000000009999123100000010000000000000BRGUARACNOR4172
012023080102JHSF3       010JHSF PART   ON  ED  NM   R$  000000000056000000000005650000000000555000000000056000000000005640000000000560000000000056403560000000000002241400000000001256779300000000000000009999123100000010000000000000BRJHSFACNOR2128
012023080102JOPA3       010JOSAPAR     ON           R$  000000000211100000000021990000000002110000000000211900000000021990000000002121000000000240000006000000000000001000000000000002119200000000000000009999123100000010000000000000BRJOPAACNOR5134
012023080102JSLG3       010JSL         ON      NM   R$  000000000098900000000010030000000000970000000000098700000000010030000000000997000000000100300887000000000000187000000000000184749200000000000000009999123100000010000000000000BRJSLGACNOR2120
012023080102KEPL3       010KEPLER WEBERON      NM   R$  000000000094000000000009640000000000934000000000094700000000009620000000000959000000000096305391000000000001945800000000001843469100000000000000009999123100000010000000000000BRKEPLACNOR1059
012023080102KLBN11      010KLABIN S/A  UNT     N2   R$  000000000229400000000023560000000002266000000000230900000000022750000000002274000000000227524932000000000012291000000000028381273000000000000000009999123100000010000000000000BRKLBNCDAM18136
012023080102KLBN3       010KLABIN S/A  ON      N2   R$  000000000045800000000004690000000000452000000000045900000000004550000000000455000000000045601519000000000000752400000000000345811200000000000000009999123100000010000000000000BRKLBNACNOR2164
012023080102KLBN4       010KLABIN S/A  PN      N2   R$  000000000046300000000004720000000000453000000000046200000000004540000000000454000000000045503972000000000003639300000000001684105100000000000000009999123100000010000000000000BRKLBNACNPR9164
012023080102MTRE3       010MITRE REALTYON      NM   R$  000000000068600000000006950000000000672000000000068300000000006890000000000686000000000068901045000000000000443300000000000303217100000000000000009999123100000010000000000000BRMTREACNOR6108
012023080102MTSA4       010METISA      PN           R$  000000000509900000000051000000000005000000000000507600000000050990000000005001000000000515000011000000000000001700000000000008630100000000000000009999123100000010000000000000BRMTSAACNPR9069
012023080102MULT3       010MULTIPLAN   ON      N2   R$  000000000264500000000026820000000002604000000000265600000000026660000000002665000000000267421483000000000004748300000000012611503200000000000000009999123100000010000000000000BRMULTACNOR5134
012023080102MWET4       010WETZEL S/A  PN           R$  000000000102500000000010380000000000981000000000101600000000010380000000001015000000000103900007000000000000001200000000000001220100000000000000009999123100000010000000000000BRMWETACNPR3118
012023080102MYPK3       010IOCHP-MAXIONON      NM   R$  000000000138500000000013910000000001367000000000138100000000013910000000001383000000000139103416000000000000817100000000001129114800000000000000009999123100000010000000000000BRMYPKACNOR7153
012023080102NEOE3       010NEOENERGIA  ON      NM   R$  000000000193500000000019830000000001929000000000195600000000019400000000001940000000000194810228000000000002144300000000004195122500000000000000009999123100000010000000000000BRNEOEACNOR3120
012023080102NGRD3       010NEOGRID     ON      NM   R$  000000000017900000000001840000000000175000000000017900000000001770000000000177000000000018001549000000000000820600000000000147653400000000000000009999123100000010000000000000BRNGRDACNOR3103
012023080102NINJ3       010GETNINJAS   ON      NM   R$  000000000034700000000003590000000000337000000000035000000000003580000000000355000000000035800347000000000000068700000000000024090100000000000000009999123100000010000000000000BRNINJACNOR5100
012023080102NTCO3       010GRUPO NATURAON      NM   R$  000000000180600000000018410000000001797000000000182400000000018340000000001833000000000183515338000000000006182900000000011283112200000000000000009999123100000010000000000000BRNTCOACNOR5103
012023080102PFRM3       010PROFARMA    ON      NM   R$  000000000039500000000004190000000000394000000000041000000000004150000000000415000000000041700508000000000000235200000000000096644700000000000000009999123100000010000000000000BRPFRMACNOR1114
012023080102PGMN3       010PAGUE MENOS ON      NM   R$  000000000042200000000004280000000000414000000000042200000000004260000000000426000000000042701380000000000000437500000000000184849400000000000000009999123100000010000000000000BRPGMNACNOR8101
012023080102PINE4       010PINE        PN  EJ  N2   R$  000000000035100000000003620000000000333000000000035000000000003490000000000349000000000035001107000000000000867700000000000304317500000000000000009999123100000010000000000000BRPINEACNPR8147
012023080102PLPL3       010PLANOEPLANO ON      NM   R$  000000000113500000000011500000000001114000000000113400000000011420000000001140000000000114202557000000000000689200000000000781651500000000000000009999123100000010000000000000BRPLPLACNOR5103
012023080102PNVL3       010DIMED       ON      NM   R$  000000000132100000000013210000000001304000000000131100000000013090000000001309000000000131101789000000000000328000000000000430022300000000000000009999123100000010000000000000BRPNVLACNOR9202
012023080102ECOR3       010ECORODOVIAS ON      NM   R$  000000000082800000000008390000000000791000000000082200000000008340000000000833000000000083413579000000000009027500000000007427192800000000000000009999123100000010000000000000BRECORACNOR8118
012023080102FIQE3       010UNIFIQUE    ON      NM   R$  000000000041000000000004230000000000410000000000041600000000004230000000000415000000000042400971000000000000388600000000000161696700000000000000009999123100000010000000000000BRFIQEACNOR5104
012023080102FLRY3       010FLEURY      ON      NM   R$  000000000160000000000016070000000001574000000000158200000000015810000000001581000000000158213695000000000003287300000000005203465000000000000000009999123100000010000000000000BRFLRYACNOR5135
012023080102DASA3       010DASA        ON      NM   R$  000000000134500000000013450000000001285000000000131200000000013040000000001304000000000130501605000000000000293800000000000385507600000000000000009999123100000010000000000000BRDASAACNOR1122
012023080102ITUB3       010ITAUUNIBANCOON  EJ  N1   R$  000000000246900000000024830000000002442000000000246000000000024720000000002472000000000247401450000000000000589000000000001449373200000000000000009999123100000010000000000000BRITUBACNOR4322
012023080102ITUB4       010ITAUUNIBANCOPN  EJ  N1   R$  000000000283300000000028730000000002828000000000285200000000028710000000002862000000000287225137000000000014834600000000042320070500000000000000009999123100000010000000000000BRITUBACNPR1322
012023080102HYPE3       010HYPERA      ON      NM   R$  000000000433800000000043650000000004269000000000432100000000043430000000004341000000000434518812000000000005196900000000022458981600000000000000009999123100000010000000000000BRHYPEACNOR0134
012023080102KRSA3       010KORA SAUDE  ON      NM   R$  000000000014700000000001470000000000136000000000014000000000001390000000000139000000000014000770000000000000625600000000000087880800000000000000009999123100000010000000000000BRKRSAACNOR0100
012023080102LAND3       010TERRASANTAPAON      NM   R$  000000000242200000000024730000000002412000000000243600000000024380000000002437000000000243900172000000000000023500000000000057246400000000000000009999123100000010000000000000BRLANDACNOR9102
012023080102LAVV3       010LAVVI       ON      NM   R$  000000000083600000000008400000000000819000000000083000000000008350000000000832000000000083502437000000000000500200000000000415347400000000000000009999123100000010000000000000BRLAVVACNOR4107
012023080102LEVE3       010METAL LEVE  ON      NM   R$  000000000453300000000045650000000004478000000000451000000000045150000000004514000000000451500958000000000000127100000000000573275200000000000000009999123100000010000000000000BRLEVEACNOR2193
012023080102LJQQ3       010QUERO-QUERO ON      NM   R$  000000000066000000000006700000000000646000000000065900000000006610000000000660000000000066205985000000000002202100000000001452173100000000000000009999123100000010000000000000BRLJQQACNOR5103
012023080102LOGG3       010LOG COM PROPON      NM   R$  000000000213700000000021370000000002081000000000210200000000020920000000002090000000000209300985000000000000179300000000000376947000000000000000009999123100000010000000000000BRLOGGACNOR7106
012023080102ODPV3       010ODONTOPREV  ON      NM   R$  000000000122200000000012260000000001200000000000120900000000012160000000001210000000000121702656000000000000830400000000001004684500000000000000009999123100000010000000000000BRODPVACNOR4196
012023080102OFSA3       010OUROFINO S/AON      NM   R$  000000000242600000000024580000000002426000000000244700000000024500000000002449000000000245600021000000000000003000000000000007341700000000000000009999123100000010000000000000BROFSAACNOR7116
012023080102ONCO3       010ONCOCLINICASON      NM   R$  000000000121600000000012350000000001194000000000121800000000012110000000001210000000000121115629000000000006231200000000007595772600000000000000009999123100000010000000000000BRONCOACNOR6100
012023080102OPCT3       010OCEANPACT   ON      NM   R$  000000000053400000000005410000000000526000000000053200000000005290000000000528000000000053200744000000000000338000000000000180091000000000000000009999123100000010000000000000BROPCTACNOR0100
012023080102ORVR3       010ORIZON      ON      NM   R$  000000000384800000000038480000000003781000000000381300000000038110000000003811000000000382501081000000000000219900000000000838671100000000000000009999123100000010000000000000BRORVRACNOR0101
012023080102OSXB3       010OSX BRASIL  ON      NM   R$  000000000047100000000004790000000000455000000000046800000000004610000000000461000000000046700051000000000000009200000000000004311600000000000000009999123100000010000000000000BROSXBACNOR8109
012023080102PRIO3       010PETRORIO    ON      NM   R$  000000000452700000000046160000000004493000000000454800000000045800000000004580000000000458126586000000000006971600000000031710480100000000000000009999123100000010000000000000BRPRIOACNOR1104
012023080102BAHI3       010BAHEMA      ON      MA   R$  000000000091100000000010000000000000911000000000095800000000009570000000000932000000000095500041000000000000010000000000000009586300000000000000009999123100000010000000000000BRBAHIACNOR1074
012023080102BALM3       010BAUMER      ON           R$  000000000095000000000009500000000000950000000000095000000000009500000000000950000000000098000001000000000000000100000000000000095000000000000000009999123100000010000000000000BRBALMACNOR5054
012023080102BALM4       010BAUMER      PN           R$  000000000095000000000009500000000000950000000000095000000000009500000000000950000000000098500002000000000000000600000000000000570000000000000000009999123100000010000000000000BRBALMACNPR2055
012023080102BAUH4       010EXCELSIOR   PN           R$  000000000767300000000076730000000007673000000000767300000000076730000000006501000000000767400002000000000000000300000000000002302100000000000000009999123100000010000000000000BRBAUHACNPR3117
012023080102BAZA3       010AMAZONIA    ON           R$  000000000691200000000069960000000006880000000000694600000000069960000000006995000000000700000017000000000000001900000000000013199100000000000000009999123100000010000000000000BRBAZAACNOR0178
012023080102BBAS3       010BRASIL      ON      NM   R$  000000000479200000000048030000000004694000000000473600000000047360000000004735000000000473633657000000000012680100000000060056960400000000000000009999123100000010000000000000BRBBASACNOR3315
012023080102CMIG3       010CEMIG       ON      N1   R$  000000000185400000000018740000000001825000000000184700000000018490000000001847000000000185101032000000000000298100000000000550807700000000000000009999123100000010000000000000BRCMIGACNOR6237
012023080102CMIG4       010CEMIG       PN      N1   R$  000000000126400000000012750000000001251000000000126200000000012630000000001262000000000126313485000000000005727400000000007229871300000000000000009999123100000010000000000000BRCMIGACNPR3238
012023080102CMIN3       010CSNMINERACAOON      N2   R$  000000000044500000000004450000000000437000000000043900000000004400000000000439000000000044106131000000000003768600000000001658044800000000000000009999123100000010000000000000BRCMINACNOR2108
012023080102COCE5       010COELCE      PNA          R$  000000000521400000000052600000000005170000000000517900000000052000000000005199000000000520000128000000000000102900000000000532939100000000000000009999123100000010000000000000BRCOCEACNPA3146
012023080102COGN3       010COGNA ON    ON      NM   R$  000000000033300000000003360000000000323000000000033000000000003320000000000332000000000033343191000000000020875000000000006894277200000000000000009999123100000010000000000000BRCOGNACNOR2103
012023080102ELMD3       010ELETROMIDIA ON      NM   R$  000000000148000000000015000000000001462000000000147900000000014680000000001468000000000147900472000000000000085100000000000125931700000000000000009999123100000010000000000000BRELMDACNOR3100
012023080102EMAE4       010EMAE        PN           R$  000000000645900000000065890000000006421000000000646900000000064980000000006250000000000649900012000000000000001200000000000007763900000000000000009999123100000010000000000000BREMAEACNPR1123
012023080102EMBR3       010EMBRAER     ON  ATZ NM   R$  000000000184300000000019130000000001835000000000187500000000018750000000001874000000000187520342000000000011094000000000020801424800000000000000009999123100000010000000000000BREMBRACNOR4191
012023080102B3SA3       010B3          ON      NM   R$  000000000147900000000014870000000001458000000000146900000000014740000000001474000000000147528658000000000029131900000000042821791400000000000000009999123100000010000000000000BRB3SAACNOR6128
012023080102BLAU3       010BLAU        ON      NM   R$  000000000206900000000021050000000002030000000000208100000000020930000000002092000000000209608133000000000000984100000000002048031000000000000000009999123100000010000000000000BRBLAUACNOR8111
012023080102WIZC3       010WIZ CO      ON      NM   R$  000000000062900000000006590000000000627000000000064800000000006550000000000651000000000065503952000000000001085000000000000704075900000000000000009999123100000010000000000000BRWIZCACNOR5101
012023080102WLMM4       010WLM IND COM PN           R$  000000000220200000000024800000000002202000000000241400000000024800000000002421000000000248000024000000000000004900000000000011830600000000000000009999123100000010000000000000BRWLMMACNPR3114
012023080102BMEB3       010MERC BRASIL ON      N1   R$  000000000127500000000012750000000001275000000000127500000000012750000000001193000000000128400001000000000000000100000000000000127500000000000000009999123100000010000000000000BRBMEBACNOR8203
012023080102BMEB4       010MERC BRASIL PN      N1   R$  000000000113000000000011350000000001113000000000113000000000011300000000001120000000000113500027000000000000008400000000000009499100000000000000009999123100000010000000000000BRBMEBACNPR5208
012023080102BMGB4       010BANCO BMG   PN      N1   R$  000000000027800000000002880000000000276000000000028200000000002860000000000284000000000028601406000000000000675100000000000191017300000000000000009999123100000010000000000000BRBMGBACNPR0106
012023080102BMKS3       010BIC MONARK  ON           R$  000000003300000000000330000000000032000000000003231300000000321000000000032107000000003299000020000000000000000073000000000002358909000000000000009999123100000010000000000000BRBMKSACNOR9165
012023080102BMOB3       010BEMOBI TECH ON      NM   R$  000000000135000000000013560000000001337000000000134700000000013500000000001348000000000135204605000000000000619100000000000834481400000000000000009999123100000010000000000000BRBMOBACNOR7102
012023080102BOAS3       010BOA VISTA   ON      NM   R$  000000000079600000000007980000000000795000000000079500000000007950000000000795000000000079701121000000000000362500000000000288465500000000000000009999123100000010000000000000BRBOASACNOR6104
012023080102BOBR4       010BOMBRIL     PN           R$  000000000019300000000002080000000000189000000000020100000000002010000000000201000000000020200226000000000000176700000000000035558400000000000000009999123100000010000000000000BRBOBRACNPR3128
012023080102CEBR3       010CEB         ON           R$  000000000136600000000013680000000001344000000000134400000000013560000000001340000000000135600016000000000000006700000000000009004900000000000000009999123100000010000000000000BRCEBRACNOR5123
012023080102CEBR5       010CEB         PNA          R$  000000000136500000000013650000000001364000000000136400000000013640000000001352000000000136300003000000000000000300000000000000409300000000000000009999123100000010000000000000BRCEBRACNPA8122
012023080102CEBR6       010CEB         PNB          R$  000000000145000000000014630000000001403000000000142300000000014310000000001415000000000142800038000000000000005200000000000007403300000000000000009999123100000010000000000000BRCEBRACNPB6122
012023080102CEDO3       010CEDRO       ON      N1   R$  000000000135000000000013500000000001350000000000135000000000013500000000001350000000000143800003000000000000001000000000000001350000000000000000009999123100000010000000000000BRCEDOACNOR8096
012023080102CEDO4       010CEDRO       PN      N1   R$  000000000120000000000012090000000001200000000000120000000000012000000000001183000000000120000037000000000000037700000000000045241200000000000000009999123100000010000000000000BRCEDOACNPR5128
012023080102CEEB3       010COELBA      ON  ED       R$  000000000460000000000046000000000004310000000000438500000000044000000000004362000000000456900015000000000000001600000000000007016700000000000000009999123100000010000000000000BRCEEBACNOR3194
012023080102CEEB5       010COELBA      PNA ED       R$  000000000546000000000054600000000005460000000000546000000000054600000000003300000000000000000001000000000000000100000000000000546000000000000000009999123100000010000000000000BRCEEBACNPA6188
012023080102CEED3       010CEEE-D      ON           R$  000000000250000000000025000000000002500000000000250000000000025000000000002379000000000284900001000000000000000100000000000000250000000000000000009999123100000010000000000000BRCEEDACNOR9103
012023080102TELB4       010TELEBRAS    PN           R$  000000000126200000000013000000000001240000000000127300000000012940000000001271000000000129400058000000000000011800000000000015022000000000000000009999123100000010000000000000BRTELBACNPR9140
012023080102TEND3       010TENDA       ON      NM   R$  000000000118400000000012200000000001166000000000119700000000011990000000001197000000000119906994000000000002725600000000003263369500000000000000009999123100000010000000000000BRTENDACNOR4111
012023080102TFCO4       010TRACK FIELD PN      N2   R$  000000000135200000000013560000000001332000000000134800000000013510000000001345000000000135100161000000000000046000000000000062016400000000000000009999123100000010000000000000BRTFCOACNPR8109
012023080102TGMA3       010TEGMA       ON      NM   R$  000000000224300000000022990000000002206000000000225200000000022990000000002290000000000229901153000000000000187600000000000422575800000000000000009999123100000010000000000000BRTGMAACNOR7141
012023080102TIMS3       010TIM         ON      NM   R$  000000000146000000000014670000000001411000000000144000000000014350000000001434000000000143620946000000000014152100000000020384341200000000000000009999123100000010000000000000BRTIMSACNOR5112
012023080102CGAS3       010COMGAS      ON           R$  000000001220000000000122000000000012200000000001220000000000122000000000011505000000001264600001000000000000000100000000000001220000000000000000009999123100000010000000000000BRCGASACNOR0160
012023080102CGAS5       010COMGAS      PNA          R$  000000001282500000000129140000000012825000000001286300000000129080000000012900000000001294100009000000000000000900000000000011576700000000000000009999123100000010000000000000BRCGASACNPA3157
012023080102CGRA3       010GRAZZIOTIN  ON           R$  000000000268100000000026920000000002610000000000263100000000026230000000002606000000000262300221000000000000057700000000000151817100000000000000009999123100000010000000000000BRCGRAACNOR2080
012023080102CGRA4       010GRAZZIOTIN  PN           R$  000000000283000000000028550000000002804000000000282600000000028040000000002804000000000281900092000000000000015800000000000044657700000000000000009999123100000010000000000000BRCGRAACNPR9080
012023080102CIEL3       010CIELO       ON      NM   R$  000000000047400000000004750000000000465000000000046900000000004700000000000469000000000047013639000000000034921500000000016396512000000000000000009999123100000010000000000000BRCIELACNOR3153
012023080102CLSA3       010CLEARSALE   ON      NM   R$  000000000055100000000005840000000000551000000000057400000000005770000000000576000000000057703546000000000001343300000000000771897900000000000000009999123100000010000000000000BRCLSAACNOR0100
012023080102CLSC3       010CELESC      ON      N2   R$  000000000579900000000057990000000005799000000000579900000000057990000000005600000000000575000002000000000000000200000000000001159800000000000000009999123100000010000000000000BRCLSCACNOR6147
012023080102CLSC4       010CELESC      PN      N2   R$  000000000611500000000061150000000006000000000000603400000000060300000000006018000000000603100030000000000000003800000000000022930900000000000000009999123100000010000000000000BRCLSCACNPR3126
012023080102EGIE3       010ENGIE BRASILON      NM   R$  000000000438700000000044440000000004362000000000440800000000044310000000004431000000000443906406000000000001719800000000007581955300000000000000009999123100000010000000000000BREGIEACNOR9123
012023080102EKTR4       010ELEKTRO     PN  ED       R$  000000000389600000000038960000000003857000000000387600000000038570000000003857000000000389600002000000000000000200000000000000775300000000000000009999123100000010000000000000BREKTRACNPR7158
012023080102ELET3       010ELETROBRAS  ON      N1   R$  000000000381000000000038610000000003770000000000380600000000038210000000003819000000000382218705000000000007266500000000027659456000000000000000009999123100000010000000000000BRELETACNOR6159
012023080102ELET6       010ELETROBRAS  PNB     N1   R$  000000000431100000000043400000000004252000000000429400000000043080000000004307000000000431005731000000000001344000000000005772041400000000000000009999123100000010000000000000BRELETACNPB7076
012023080102GGPS3       010GPS         ON      NM   R$  000000000174300000000017530000000001720000000000173300000000017380000000001737000000000173903699000000000000744200000000001290043900000000000000009999123100000010000000000000BRGGPSACNOR9102
012023080102GMAT3       010GRUPO MATEUSON      NM   R$  000000000077400000000007820000000000747000000000076400000000007810000000000781000000000078225028000000000013387300000000010234601000000000000000009999123100000010000000000000BRGMATACNOR7100
012023080102GOAU3       010GERDAU MET  ON      N1   R$  000000000132500000000013390000000001312000000000133100000000013330000000001330000000000133300139000000000000026100000000000034744700000000000000009999123100000010000000000000BRGOAUACNOR1263
012023080102GOAU4       010GERDAU MET  PN      N1   R$  000000000136400000000013800000000001352000000000137300000000013750000000001371000000000137506327000000000002660400000000003653206100000000000000009999123100000010000000000000BRGOAUACNPR8264
012023080102JALL3       010JALLESMACHADON  ED  NM   R$  000000000084300000000008430000000000817000000000083300000000008320000000000832000000000083703897000000000000957100000000000797455000000000000000009999123100000010000000000000BRJALLACNOR0104
012023080102JBSS3       010JBS         ON      NM   R$  000000000187000000000019240000000001859000000000190500000000019020000000001902000000000190315588000000000010326300000000019672626000000000000000009999123100000010000000000000BRJBSSACNOR8121
012023080102MRVE3       010MRV         ON      NM   R$  000000000138800000000013900000000001364000000000137700000000013890000000001389000000000139022300000000000006691500000000009214249000000000000000009999123100000010000000000000BRMRVEACNOR2126
012023080102ASAI3       010ASSAI       ON      NM   R$  000000000134100000000013730000000001319000000000135400000000013650000000001363000000000136529480000000000023914700000000032390888600000000000000009999123100000010000000000000BRASAIACNOR0106
012023080102ATOM3       010ATOMPAR     ON           R$  000000000025800000000002590000000000254000000000025600000000002550000000000255000000000025800046000000000000012100000000000003100500000000000000009999123100000010000000000000BRATOMACNOR1106
012023080102ROMI3       010ROMI        ON      NM   R$  000000000143200000000014500000000001416000000000142600000000014350000000001430000000000143502729000000000000751100000000001071283400000000000000009999123100000010000000000000BRROMIACNOR8190
012023080102RRRP3       0103R PETROLEUMON      NM   R$  000000000355000000000035690000000003495000000000352100000000035160000000003515000000000351708304000000000003175500000000011184080800000000000000009999123100000010000000000000BRRRRPACNOR5102
012023080102RSUL4       010RIOSULENSE  PN           R$  000000000629700000000062970000000006100000000000616600000000061200000000006120000000000621500116000000000000013500000000000083244300000000000000009999123100000010000000000000BRRSULACNPR3113
012023080102AURE3       010AUREN       ON      NM   R$  000000000140000000000014300000000001396000000000141800000000014010000000001401000000000140307889000000000005884200000000008347080900000000000000009999123100000010000000000000BRAUREACNOR9102
012023080102AZEV3       010AZEVEDO     ON           R$  000000000021500000000002230000000000208000000000021500000000002130000000000213000000000021400581000000000000533800000000000115121700000000000000009999123100000010000000000000BRAZEVACNOR0120
012023080102AZEV4       010AZEVEDO     PN           R$  000000000021700000000002240000000000209000000000021400000000002110000000000210000000000021102248000000000001503800000000000322438000000000000000009999123100000010000000000000BRAZEVACNPR7120
012023080102AZUL4       010AZUL        PN      N2   R$  000000000175300000000017910000000001718000000000175700000000017710000000001771000000000177213247000000000010092100000000017741164400000000000000009999123100000010000000000000BRAZULACNPR4102
012023080102BEEF3       010MINERVA     ON      NM   R$  000000000101300000000010410000000001012000000000102700000000010220000000001021000000000102224257000000000008525100000000008762461600000000000000009999123100000010000000000000BRBEEFACNOR6115
012023080102BEES3       010BANESTES    ON  EJ       R$  000000000092100000000009220000000000910000000000091600000000009200000000000917000000000091900088000000000000015600000000000014291500000000000000009999123100000010000000000000BRBEESACNOR9380
012023080102BEES4       010BANESTES    PN  EJ       R$  000000000100400000000010180000000001004000000000101200000000010170000000001002000000000101700034000000000000004000000000000004049200000000000000009999123100000010000000000000BRBEESACNPR6305
012023080102AERI3       010AERIS       ON      NM   R$  000000000012000000000001240000000000119000000000012200000000001230000000000122000000000012302816000000000005374000000000000656056900000000000000009999123100000010000000000000BRAERIACNOR4101
012023080102AESB3       010AES BRASIL  ON      NM   R$  000000000119000000000012110000000001190000000000119800000000011960000000001196000000000119706521000000000001548000000000001855684800000000000000009999123100000010000000000000BRAESBACNOR7105
012023080102AFLT3       010AFLUENTE T  ON           R$  000000000098900000000009980000000000931000000000096200000000009310000000000927000000000095100006000000000000000700000000000000673500000000000000009999123100000010000000000000BRAFLTACNOR1120
012023080102AGRO3       010BRASILAGRO  ON      NM   R$  000000000259800000000026680000000002591000000000263700000000026500000000002649000000000265004814000000000000773600000000002040695000000000000000009999123100000010000000000000BRAGROACNOR7113
012023080102BGIP3       010BANESE      ON           R$  000000000220000000000022220000000002190000000000220000000000022220000000002186000000000250000004000000000000000400000000000000880200000000000000009999123100000010000000000000BRBGIPACNOR1204
012023080102TRIS3       010TRISUL      ON      NM   R$  000000000061000000000006230000000000603000000000061400000000006230000000000619000000000062302773000000000001059600000000000651624300000000000000009999123100000010000000000000BRTRISACNOR4116
012023080102TRPL3       010TRAN PAULISTON      N1   R$  000000000332100000000033770000000003300000000000332800000000033060000000003230000000000331000033000000000000006600000000000021968400000000000000009999123100000010000000000000BRTRPLACNOR4184
012023080102TRPL4       010TRAN PAULISTPN      N1   R$  000000000251500000000025590000000002509000000000254500000000025450000000002545000000000254611343000000000002015800000000005130837900000000000000009999123100000010000000000000BRTRPLACNPR1184
012023080102TTEN3       0103TENTOS     ON      NM   R$  000000000125800000000012650000000001216000000000123800000000012220000000001221000000000122508255000000000002639700000000003268084700000000000000009999123100000010000000000000BRTTENACNOR0102
012023080102TUPY3       010TUPY        ON      NM   R$  000000000271500000000027390000000002684000000000270300000000027000000000002700000000000271104368000000000000853000000000002306408800000000000000009999123100000010000000000000BRTUPYACNOR1181
012023080102BRGE3       010ALFA CONSORCON           R$  000000000094000000000009400000000000940000000000094000000000009400000000000780000000000095000002000000000000000200000000000000188000000000000000009999123100000010000000000000BRBRGEACNOR6203
012023080102BRIT3       010BRISANET    ON      NM   R$  000000000029800000000003060000000000294000000000030100000000003050000000000304000000000030501506000000000000774200000000000233313000000000000000009999123100000010000000000000BRBRITACNOR0102
012023080102BRIV3       010ALFA INVEST ON           R$  000000000102000000000010200000000001020000000000102000000000010200000000000871000000000109000002000000000000000500000000000000510000000000000000009999123100000010000000000000BRBRIVACNOR6209
012023080102BRKM3       010BRASKEM     ON      N1   R$  000000000261300000000026130000000002567000000000258600000000025700000000002570000000000258100136000000000000015400000000000039825400000000000000009999123100000010000000000000BRBRKMACNOR1119
012023080102BRKM5       010BRASKEM     PNA     N1   R$  000000000253000000000025420000000002495000000000251200000000025120000000002505000000000251208072000000000002035600000000005114665300000000000000009999123100000010000000000000BRBRKMACNPA4120
012023080102CSRN6       010COSERN      PNB ED       R$  000000000276000000000027600000000002760000000000276000000000027600000000002600000000000275900002000000000000000200000000000000552000000000000000009999123100000010000000000000BRCSRNACNPB1189
012023080102CSUD3       010CSU DIGITAL ON      NM   R$  000000000156500000000015810000000001518000000000154700000000015630000000001563000000000157200332000000000000080900000000000125196600000000000000009999123100000010000000000000BRCSUDACNOR5105
012023080102CTKA4       010KARSTEN     PN           R$  000000000108700000000010870000000001087000000000108700000000010870000000001010000000000112000001000000000000000100000000000000108700000000000000009999123100000010000000000000BRCTKAACNPR7043
012023080102CTNM3       010COTEMINAS   ON           R$  000000000098400000000010000000000000975000000000099000000000009870000000000975000000000100000015000000000000003700000000000003665300000000000000009999123100000010000000000000BRCTNMACNOR9130
012023080102CTNM4       010COTEMINAS   PN           R$  000000000028000000000002950000000000277000000000028900000000002860000000000286000000000029200091000000000000093300000000000027006200000000000000009999123100000010000000000000BRCTNMACNPR6129
012023080102CTSA3       010SANTANENSE  ON           R$  000000000035100000000003750000000000343000000000035600000000003570000000000354000000000035700070000000000000013500000000000004812100000000000000009999123100000010000000000000BRCTSAACNOR3062
012023080102CTSA4       010SANTANENSE  PN           R$  000000000024200000000002830000000000236000000000026700000000002750000000000275000000000027900248000000000000131200000000000035107700000000000000009999123100000010000000000000BRCTSAACNPR0062
012023080102CURY3       010CURY S/A    ON      NM   R$  000000000177000000000017870000000001755000000000176800000000017670000000001760000000000176905065000000000001004300000000001776281800000000000000009999123100000010000000000000BRCURYACNOR3105
012023080102CVCB3       010CVC BRASIL  ON      NM   R$  000000000029700000000003060000000000292000000000029700000000003010000000000301000000000030211268000000000022693400000000006748827900000000000000009999123100000010000000000000BRCVCBACNOR1115
012023080102ITSA3       010ITAUSA      ON  EJ  N1   R$  000000000099100000000009940000000000980000000000098700000000009910000000000990000000000099500349000000000000242700000000000239757000000000000000009999123100000010000000000000BRITSAACNOR0430
012023080102BIOM3       010BIOMM       ON  ES  MA   R$  000000000063500000000006980000000000635000000000066300000000006500000000000649000000000066000079000000000000016700000000000011084800000000000000009999123100000010000000000000BRBIOMACNOR2111
012023080102CAML3       010CAMIL       ON      NM   R$  000000000072600000000007300000000000717000000000072000000000007220000000000720000000000072305319000000000001723400000000001242443300000000000000009999123100000010000000000000BRCAMLACNOR3124
012023080102CASH3       010MELIUZ      ON      NM   R$  000000000098300000000010400000000000976000000000101200000000009930000000000993000000000099408910000000000006229600000000006305510200000000000000009999123100000010000000000000BRCASHACNOR8105
012023080102ITSA4       010ITAUSA      PN  EJ  N1   R$  000000000097700000000009870000000000969000000000097500000000009800000000000979000000000098215866000000000025751700000000025129713400000000000000009999123100000010000000000000BRITSAACNPR7430
012023080102RAPT4       010RANDON PART PN  EJ  N1   R$  000000000124000000000012480000000001218000000000123200000000012290000000001229000000000123006642000000000001983600000000002444088800000000000000009999123100000010000000000000BRRAPTACNPR4161
012023080102CBAV3       010CBA         ON      NM   R$  000000000052300000000005380000000000518000000000052900000000005290000000000529000000000053007826000000000005441600000000002882501600000000000000009999123100000010000000000000BRCBAVACNOR5103
012023080102CCRO3       010CCR SA      ON      NM   R$  000000000132800000000013360000000001307000000000132500000000013270000000001326000000000132718939000000000011383700000000015089083800000000000000009999123100000010000000000000BRCCROACNOR2143
012023080102CEAB3       010CEA MODAS   ON      NM   R$  000000000056500000000005920000000000545000000000056900000000005910000000000590000000000059106693000000000005677300000000003231526500000000000000009999123100000010000000000000BRCEABACNOR1101
012023080102DESK3       010DESKTOP     ON      NM   R$  000000000137900000000014120000000001358000000000139400000000014040000000001400000000000140401569000000000000379900000000000529946100000000000000009999123100000010000000000000BRDESKACNOR2103
012023080102DEXP3       010DEXXOS PAR  ON      N1   R$  000000000090500000000009500000000000905000000000092600000000009250000000000925000000000094800327000000000000062200000000000057642400000000000000009999123100000010000000000000BRDEXPACNOR1103
012023080102DEXP4       010DEXXOS PAR  PN      N1   R$  000000000088000000000008980000000000878000000000088500000000008900000000000848000000000089700020000000000000006300000000000005576100000000000000009999123100000010000000000000BRDEXPACNPR8103
012023080102DIRR3       010DIRECIONAL  ON      NM   R$  000000000210900000000021390000000002082000000000211200000000021390000000002132000000000213906265000000000001286200000000002717358000000000000000009999123100000010000000000000BRDIRRACNOR0116
012023080102DMVF3       010D1000VFARMA ON      NM   R$  000000000047100000000004830000000000465000000000047200000000004800000000000471000000000048000180000000000000078700000000000037210300000000000000009999123100000010000000000000BRDMVFACNOR9100
012023080102DOHL4       010DOHLER      PN           R$  000000000052500000000005430000000000525000000000052900000000005290000000000523000000000052900011000000000000002300000000000001217900000000000000009999123100000010000000000000BRDOHLACNPR9066
012023080102DOTZ3       010DOTZ SA     ON      NM   R$  000000000014100000000001410000000000133000000000013500000000001350000000000134000000000013500186000000000000105800000000000014364300000000000000009999123100000010000000000000BRDOTZACNOR7100
012023080102DXCO3       010DEXCO       ON      NM   R$  000000000083800000000008610000000000824000000000084500000000008440000000000840000000000084515300000000000007705500000000006514941700000000000000009999123100000010000000000000BRDXCOACNOR8103
012023080102TOTS3       010TOTVS       ON  EJ  NM   R$  000000000293500000000030010000000002923000000000295800000000029610000000002960000000000296212981000000000003693400000000010925999200000000000000009999123100000010000000000000BRTOTSACNOR8143
012023080102SYNE3       010SYN PROP TECON      NM   R$  000000000040800000000004140000000000399000000000040800000000004130000000000413000000000041400292000000000000092300000000000037670100000000000000009999123100000010000000000000BRSYNEACNOR2102
012023080102TAEE11      010TAESA       UNT     N2   R$  000000000361500000000036230000000003595000000000360900000000036130000000003611000000000361307666000000000001593600000000005751505200000000000000009999123100000010000000000000BRTAEECDAM10142
012023080102VIIA3       010VIA         ON      NM   R$  000000000021400000000002160000000000208000000000021100000000002120000000000211000000000021220502000000000072140600000000015233142700000000000000009999123100000010000000000000BRVIIAACNOR7102
012023080102SMFT3       010SMART FIT   ON      NM   R$  000000000227600000000023340000000002262000000000230500000000023100000000002306000000000231007088000000000002304900000000005313052400000000000000009999123100000010000000000000BRSMFTACNOR1109
012023080102SMTO3       010SAO MARTINHOON  ED  NM   R$  000000000334700000000033520000000003281000000000330900000000033020000000003295000000000330307421000000000001265600000000004188499600000000000000009999123100000010000000000000BRSMTOACNOR3125
012023080102SNSY3       010SANSUY      ON           R$  000000000065400000000006650000000000600000000000061500000000006210000000000605000000000062300051000000000000008000000000000004920800000000000000009999123100000010000000000000BRSNSYACNOR2113
012023080102SNSY5       010SANSUY      PNA          R$  000000000045800000000004730000000000440000000000045400000000004500000000000442000000000045000064000000000000020100000000000009136600000000000000009999123100000010000000000000BRSNSYACNPA5111
012023080102SOJA3       010BOA SAFRA   ON      NM   R$  000000000116500000000011820000000001150000000000116900000000011820000000001173000000000118200722000000000000217200000000000254004200000000000000009999123100000010000000000000BRSOJAACNOR9103
012023080102SOMA3       010GRUPO SOMA  ON      NM   R$  000000000111900000000011550000000001105000000000114000000000011440000000001143000000000114418762000000000008118300000000009259407300000000000000009999123100000010000000000000BRSOMAACNOR3102
012023080102SOND5       010SONDOTECNICAPNA          R$  000000000400000000000040000000000004000000000000400000000000040000000000003731000000000470000001000000000000000100000000000000400000000000000000009999123100000010000000000000BRSONDACNPA8165
012023080102TAEE3       010TAESA       ON      N2   R$  000000000120300000000012080000000001197000000000120100000000012050000000001201000000000120501117000000000000209900000000000252186100000000000000009999123100000010000000000000BRTAEEACNOR9142
012023080102TAEE4       010TAESA       PN      N2   R$  000000000120900000000012090000000001200000000000120500000000012060000000001205000000000120601421000000000000379100000000000456934600000000000000009999123100000010000000000000BRTAEEACNPR6142
012023080102VAMO3       010VAMOS       ON      NM   R$  000000000119800000000012070000000001176000000000118800000000012010000000001199000000000120116170000000000005921600000000007036651600000000000000009999123100000010000000000000BRVAMOACNOR7104
012023080102VBBR3       010VIBRA       ON      NM   R$  000000000170000000000017140000000001685000000000169700000000017060000000001704000000000170613799000000000004366100000000007411298300000000000000009999123100000010000000000000BRVBBRACNOR1104
012023080102SQIA3       010SINQIA      ON      NM   R$  000000000263200000000026640000000002625000000000265200000000026640000000002651000000000266405315000000000001701500000000004512691900000000000000009999123100000010000000000000BRSQIAACNOR6105
012023080102STBP3       010SANTOS BRP  ON      NM   R$  000000000095700000000009760000000000948000000000096200000000009590000000000959000000000096206622000000000004251000000000004089535000000000000000009999123100000010000000000000BRSTBPACNOR3125
012023080102SUZB3       010SUZANO S.A. ON      NM   R$  000000000481100000000048880000000004793000000000484800000000048380000000004837000000000484415134000000000003313900000000016067625900000000000000009999123100000010000000000000BRSUZBACNOR0128
012023080102SCAR3       010SAO CARLOS  ON      NM   R$  000000000258900000000027650000000002545000000000264000000000026350000000002599000000000269900164000000000000020400000000000053867000000000000000009999123100000010000000000000BRSCARACNOR7130
012023080102SEER3       010SER EDUCA   ON      NM   R$  000000000057900000000005940000000000564000000000058000000000005710000000000571000000000057604353000000000001199400000000000696382300000000000000009999123100000010000000000000BRSEERACNOR5119
012023080102SEQL3       010SEQUOIA LOG ON      NM   R$  000000000009300000000001000000000000090000000000009600000000000980000000000097000000000009805984000000000015945400000000001534484500000000000000009999123100000010000000000000BRSEQLACNOR2101
012023080102SGPS3       010SPRINGS     ON      NM   R$  000000000027000000000003110000000000265000000000029200000000002920000000000291000000000029201136000000000000775300000000000226940800000000000000009999123100000010000000000000BRSGPSACNOR4104
012023080102SHOW3       010TIME FOR FUNON      NM   R$  000000000031400000000003280000000000313000000000032000000000003280000000000326000000000032800530000000000000202100000000000064715900000000000000009999123100000010000000000000BRSHOWACNOR7105
012023080102SHUL4       010SCHULZ      PN           R$  000000000067100000000007050000000000665000000000068900000000007010000000000696000000000070201320000000000000423300000000000291975100000000000000009999123100000010000000000000BRSHULACNPR4152
012023080102SIMH3       010SIMPAR      ON      NM   R$  000000000097000000000010270000000000965000000000100900000000010170000000001017000000000101809284000000000003935200000000003972317300000000000000009999123100000010000000000000BRSIMHACNOR0107
012023080102UCAS3       010UNICASA     ON      NM   R$  000000000031500000000003150000000000302000000000030800000000003060000000000304000000000030600074000000000000043300000000000013341600000000000000009999123100000010000000000000BRUCASACNOR1112
012023080102UGPA3       010ULTRAPAR    ON      NM   R$  000000000186300000000019070000000001858000000000188600000000018980000000001893000000000190109148000000000003551600000000006698493900000000000000009999123100000010000000000000BRUGPAACNOR8153
012023080102VITT3       010VITTIA      ON      NM   R$  000000000122400000000012320000000001212000000000122400000000012320000000001232000000000123300537000000000000109900000000000134530700000000000000009999123100000010000000000000BRVITTACNOR4104
012023080102VIVA3       010VIVARA S.A. ON      NM   R$  000000000292800000000029780000000002909000000000296400000000029770000000002968000000000297707374000000000001809600000000005363921100000000000000009999123100000010000000000000BRVIVAACNOR0106
012023080102VIVR3       010VIVER       ON  ES  NM   R$  000000000032400000000003450000000000321000000000033400000000003390000000000338000000000033900944000000000000712400000000000238233500000000000000009999123100000010000000000000BRVIVRACNOR4120
012023080102CXSE3       010CAIXA SEGURION      NM   R$  000000000107900000000010950000000001075000000000108300000000010800000000001079000000000108008718000000000002190400000000002373092400000000000000009999123100000010000000000000BRCXSEACNOR7104
012023080102CYRE3       010CYRELA REALTON      NM   R$  000000000236100000000023700000000002321000000000234900000000023520000000002349000000000235218376000000000012125300000000028490531000000000000000009999123100000010000000000000BRCYREACNOR7138
012023080102SLCE3       010SLC AGRICOLAON      NM   R$  000000000435000000000044710000000004341000000000444400000000044310000000004431000000000444514082000000000003021400000000013429046600000000000000009999123100000010000000000000BRSLCEACNOR2122
012023080102LREN3       010LOJAS RENNERON      NM   R$  000000000187100000000018750000000001849000000000186400000000018650000000001863000000000186525174000000000016763600000000031250322900000000000000009999123100000010000000000000BRLRENACNOR1217
012023080102LUPA3       010LUPATECH    ON      NM   R$  000000000030000000000003030000000000298000000000030000000000003010000000000300000000000030100343000000000000225900000000000067849500000000000000009999123100000010000000000000BRLUPAACNOR8112
012023080102LUXM4       010TREVISA     PN           R$  000000000210000000000021500000000002100000000000214100000000021500000000002150000000000230000006000000000000000600000000000001285000000000000000009999123100000010000000000000BRLUXMACNPR4051
012023080102PATI4       010PANATLANTICAPN           R$  000000000330000000000033000000000003300000000000330000000000033000000000003028000000000350000001000000000000000200000000000000660000000000000000009999123100000010000000000000BRPATIACNPR3064
012023080102PCAR3       010P.ACUCAR-CBDON      NM   R$  000000000205600000000020730000000002027000000000204500000000020360000000002033000000000203708362000000000001879500000000003845096000000000000000009999123100000010000000000000BRPCARACNOR3166
012023080102PDGR3       010PDG REALT   ON      NM   R$  000000000056500000000005850000000000558000000000057400000000005750000000000575000000000057900480000000000000139600000000000080249200000000000000009999123100000010000000000000BRPDGRACNOR8117
012023080102PDTC3       010PADTEC      ON      NM   R$  000000000026900000000002710000000000249000000000025900000000002590000000000258000000000025900965000000000000652800000000000169575100000000000000009999123100000010000000000000BRPDTCACNOR3100
012023080102PEAB3       010PAR AL BAHIAON           R$  000000000350000000000035000000000003500000000000350000000000035000000000003500000000000369800002000000000000000400000000000001400000000000000000009999123100000010000000000000BRPEABACNOR3130
012023080102EUCA3       010EUCATEX     ON      N1   R$  000000000176700000000017670000000001734000000000175100000000017600000000001697000000000176100013000000000000001400000000000002451800000000000000009999123100000010000000000000BREUCAACNOR1155
012023080102EUCA4       010EUCATEX     PN      N1   R$  000000000128000000000013020000000001270000000000129000000000013000000000001285000000000130000074000000000000037300000000000048146400000000000000009999123100000010000000000000BREUCAACNPR8042
012023080102EVEN3       010EVEN        ON      NM   R$  000000000073700000000007410000000000727000000000073300000000007360000000000730000000000073602529000000000000531500000000000389914100000000000000009999123100000010000000000000BREVENACNOR8116
012023080102EZTC3       010EZTEC       ON      NM   R$  000000000216900000000022200000000002142000000000219900000000022040000000002204000000000220606250000000000001713600000000003768225000000000000000009999123100000010000000000000BREZTCACNOR0121
012023080102FESA4       010FERBASA     PN      N1   R$  000000000500000000000051000000000004982000000000502900000000050540000000005046000000000505601467000000000000231900000000001166423500000000000000009999123100000010000000000000BRFESAACNPR5079
012023080102FHER3       010FER HERINGERON      NM   R$  000000000135400000000013570000000001315000000000133700000000013500000000001340000000000135000405000000000000092800000000000124099700000000000000009999123100000010000000000000BRFHERACNOR5103
012023080102LOGN3       010LOG-IN      ON      NM   R$  000000000501400000000050140000000004831000000000490200000000048310000000004831000000000488000630000000000000085700000000000420113600000000000000009999123100000010000000000000BRLOGNACNOR3105
012023080102LPSB3       010LOPES BRASILON      NM   R$  000000000027500000000002890000000000274000000000028300000000002830000000000283000000000028400280000000000000172800000000000048972300000000000000009999123100000010000000000000BRLPSBACNOR0113
012023080102CPFE3       010CPFL ENERGIAON      NM   R$  000000000357800000000036040000000003542000000000357000000000035800000000003577000000000358109319000000000001793900000000006405624400000000000000009999123100000010000000000000BRCPFEACNOR0135
012023080102CPLE11      010COPEL       UNT     N2   R$  000000000412000000000042890000000004108000000000419900000000041960000000004170000000000419601172000000000000225500000000000946888400000000000000009999123100000010000000000000BRCPLECDAM13105
012023080102CPLE3       010COPEL       ON      N2   R$  000000000081300000000008390000000000809000000000082100000000008260000000000819000000000082606499000000000002504000000000002056027900000000000000009999123100000010000000000000BRCPLEACNOR8147
012023080102CPLE6       010COPEL       PNB     N2   R$  000000000083100000000008670000000000829000000000084400000000008430000000000842000000000084432667000000000016537000000000013959820300000000000000009999123100000010000000000000BRCPLEACNPB9144
012023080102ENAT3       010ENAUTA PART ON      NM   R$  000000000139500000000013970000000001373000000000138400000000013790000000001379000000000138003989000000000000894100000000001237790600000000000000009999123100000010000000000000BRENATACNOR0104
012023080102ENBR3       010ENERGIAS BR ON           R$  000000000239000000000024490000000002390000000000239400000000023900000000002390000000000240001738000000000001706200000000004086177000000000000000009999123100000010000000000000BRENBRACNOR2135
012023080102ENEV3       010ENEVA       ON      NM   R$  000000000133200000000013430000000001313000000000132600000000013360000000001335000000000133616357000000000004832300000000006412075100000000000000009999123100000010000000000000BRENEVACNOR8105
012023080102ENGI11      010ENERGISA    UNT     N2   R$  000000000494700000000050110000000004920000000000497900000000049970000000004990000000000499704430000000000001032300000000005140290500000000000000009999123100000010000000000000BRENGICDAM16133
012023080102ENGI3       010ENERGISA    ON      N2   R$  000000000149600000000015040000000001480000000000149100000000014980000000001485000000000149800028000000000000003600000000000005370900000000000000009999123100000010000000000000BRENGIACNOR0143
012023080102ENGI4       010ENERGISA    PN      N2   R$  000000000086200000000008830000000000862000000000087200000000008750000000000866000000000088000039000000000000009300000000000008113600000000000000009999123100000010000000000000BRENGIACNPR7139
012023080102ENJU3       010ENJOEI      ON      NM   R$  000000000016900000000001770000000000166000000000017300000000001760000000000175000000000017602940000000000001308500000000000226479900000000000000009999123100000010000000000000BRENJUACNOR9100
012023080102ENMT3       010ENERGISA MT ON           R$  000000000560000000000056000000000005300000000000536700000000053000000000005000000000000549900036000000000000004300000000000023081600000000000000009999123100000010000000000000BRENMTACNOR5118
012023080102ENMT4       010ENERGISA MT PN           R$  000000000545300000000054530000000005199000000000523500000000051990000000004905000000000520000009000000000000000900000000000004712300000000000000009999123100000010000000000000BRENMTACNPR2122
012023080102EPAR3       010EMBPAR S/A  ON           R$  000000000116900000000011740000000001123000000000116000000000011690000000001130000000000116900011000000000000001700000000000001972000000000000000009999123100000010000000000000BREPARACNOR9102
012023080102EQMA3B      010EQTLMARANHAOON      MB   R$  000000000260300000000027000000000002601000000000262600000000027000000000002560000000000269800003000000000000000400000000000001050700000000000000009999123100000010000000000000BREQMAACNOR8107
012023080102EQPA3       010EQTL PARA   ON           R$  000000000060300000000006340000000000603000000000061400000000006120000000000611000000000061900017000000000000003400000000000002088900000000000000009999123100000010000000000000BREQPAACNOR1109
012023080102EQTL3       010EQUATORIAL  ON      NM   R$  000000000335500000000033660000000003265000000000328700000000033050000000003305000000000330622451000000000012310900000000040475116000000000000000009999123100000010000000000000BREQTLACNOR0129
012023080102HAGA3       010HAGA S/A    ON           R$  000000000031100000000003450000000000311000000000032600000000003420000000000322000000000034300132000000000000045800000000000014949700000000000000009999123100000010000000000000BRHAGAACNOR7103
012023080102HAGA4       010HAGA S/A    PN           R$  000000000013200000000001440000000000130000000000013700000000001440000000000142000000000014400153000000000000147100000000000020255900000000000000009999123100000010000000000000BRHAGAACNPR4103
012023080102HAPV3       010HAPVIDA     ON      NM   R$  000000000047900000000004870000000000473000000000048000000000004840000000000483000000000048535513000000000070077800000000033656694000000000000000009999123100000010000000000000BRHAPVACNOR4112
012023080102HBOR3       010HELBOR      ON      NM   R$  000000000038300000000003920000000000375000000000038400000000003850000000000385000000000039200711000000000000399600000000000153605600000000000000009999123100000010000000000000BRHBORACNOR3117
012023080102HBRE3       010HBR REALTY  ON      NM   R$  000000000053300000000005430000000000531000000000053700000000005400000000000539000000000054000266000000000000078400000000000042162500000000000000009999123100000010000000000000BRHBREACNOR4100
012023080102HBSA3       010HIDROVIAS   ON      NM   R$  000000000039300000000004030000000000390000000000039800000000003990000000000398000000000039907013000000000004551300000000001815949900000000000000009999123100000010000000000000BRHBSAACNOR0100
012023080102HBTS5       010HABITASUL   PNA          R$  000000000470000000000049000000000004700000000000485000000000049000000000004900000000000566900005000000000000000500000000000002425000000000000000009999123100000010000000000000BRHBTSACNPA3127
012023080102HETA4       010HERCULES    PN           R$  000000000073000000000007300000000000700000000000070300000000007000000000000700000000000072000005000000000000000900000000000000633000000000000000009999123100000010000000000000BRHETAACNPR9136
012023080102VVEO3       010VIVEO       ON      NM   R$  000000000211400000000021670000000002110000000000212100000000021670000000002140000000000217901552000000000000450600000000000956114900000000000000009999123100000010000000000000BRVVEOACNOR0103
012023080102WEGE3       010WEG         ON  ED  NM   R$  000000000399200000000040140000000003959000000000398200000000039860000000003985000000000399016983000000000005088200000000020266011100000000000000009999123100000010000000000000BRWEGEACNOR0218
012023080102PETZ3       010PETZ        ON      NM   R$  000000000069500000000007200000000000690000000000071000000000007150000000000714000000000071510265000000000009028700000000006412876800000000000000009999123100000010000000000000BRPETZACNOR2109
012023080102TPIS3       010TRIUNFO PARTON      NM   R$  000000000039500000000004020000000000394000000000039600000000003940000000000394000000000039900091000000000000056400000000000022376300000000000000009999123100000010000000000000BRTPISACNOR8118
012023080102TRAD3       010TC          ON      NM   R$  000000000015000000000001520000000000147000000000014900000000001480000000000147000000000014802334000000000001638600000000000244897500000000000000009999123100000010000000000000BRTRADACNOR3101
012023080102BRPR3       010BR PROPERT  ON           R$  000000000824900000000085500000000007824000000000829100000000078240000000007824000000000795300964000000000000140100000000001161638900000000000000009999123100000010000000000000BRBRPRACNOR9126
012023080102BRSR3       010BANRISUL    ON      N1   R$  000000000141500000000014530000000001397000000000141000000000014050000000001399000000000140500050000000000000007900000000000011139300000000000000009999123100000010000000000000BRBRSRACNOR3184
012023080102BRSR6       010BANRISUL    PNB     N1   R$  000000000145400000000014540000000001414000000000143600000000014490000000001449000000000145005480000000000001665900000000002393128900000000000000009999123100000010000000000000BRBRSRACNPB4187
012023080102BSLI4       010BRB BANCO   PN           R$  000000000111300000000012190000000001113000000000117100000000011520000000001152000000000119900007000000000000000800000000000000937300000000000000009999123100000010000000000000BRBSLIACNPR2191
012023080102MDIA3       010M.DIASBRANCOON      NM   R$  000000000416800000000043060000000004144000000000425500000000042720000000004272000000000428308588000000000001698500000000007228465200000000000000009999123100000010000000000000BRMDIAACNOR7130
012023080102MDNE3       010MOURA DUBEUXON      NM   R$  000000000108000000000011100000000001068000000000109400000000010930000000001092000000000109301521000000000000331300000000000362738900000000000000009999123100000010000000000000BRMDNEACNOR9100
012023080102MEAL3       010IMC S/A     ON      NM   R$  000000000026400000000002790000000000263000000000027400000000002730000000000273000000000027402087000000000001096200000000000300751500000000000000009999123100000010000000000000BRMEALACNOR9105
012023080102MEGA3       010OMEGAENERGIAON      NM   R$  000000000116400000000011760000000001118000000000113100000000011180000000001117000000000111802524000000000000546100000000000618082900000000000000009999123100000010000000000000BRMEGAACNOR9101
012023080102MELK3       010MELNICK     ON      NM   R$  000000000048300000000005000000000000475000000000048600000000004900000000000490000000000049500664000000000000250300000000000121894300000000000000009999123100000010000000000000BRMELKACNOR8108
012023080102MERC4       010MERC FINANC PN           R$  000000000077200000000007720000000000772000000000077200000000007720000000000772000000000081900001000000000000000100000000000000077200000000000000009999123100000010000000000000BRMERCACNPR9179
012023080102MGEL4       010MANGELS INDLPN           R$  000000000171200000000017120000000001712000000000171200000000017120000000001562000000000171200002000000000000000200000000000000342400000000000000009999123100000010000000000000BRMGELACNPR3147
012023080102MGLU3       010MAGAZ LUIZA ON      NM   R$  000000000033600000000003460000000000331000000000034000000000003430000000000343000000000034438311000000000084698800000000028821666400000000000000009999123100000010000000000000BRMGLUACNOR2121
012023080102RAIL3       010RUMO S.A.   ON      NM   R$  000000000230600000000023270000000002286000000000229800000000023000000000002298000000000230017339000000000012332300000000028340579400000000000000009999123100000010000000000000BRRAILACNOR9104
012023080102RAIZ4       010RAIZEN      PN  ED  N2   R$  000000000041500000000004200000000000406000000000041100000000004160000000000415000000000041730656000000000024308900000000009996879300000000000000009999123100000010000000000000BRRAIZACNPR6107
012023080102RANI3       010IRANI       ON      NM   R$  000000000101900000000010310000000000976000000000101500000000010160000000001015000000000101608856000000000002356900000000002393612000000000000000009999123100000010000000000000BRRANIACNOR5067
012023080102RAPT3       010RANDON PART ON  EJ  N1   R$  000000000098800000000009990000000000985000000000099000000000009970000000000992000000000099700019000000000000005500000000000005446600000000000000009999123100000010000000000000BRRAPTACNOR7161
012023080102RADL3       010RAIADROGASILON      NM   R$  000000000286900000000029040000000002859000000000287500000000028880000000002888000000000288915256000000000006683600000000019216277200000000000000009999123100000010000000000000BRRADLACNOR0151
012023080102CALI3       010CONST A LINDON           R$  000000000145000000000014500000000001450000000000145000000000014500000000001200000000000190000002000000000000000200000000000000290000000000000000009999123100000010000000000000BRCALIACNOR1136
012023080102CAMB3       010CAMBUCI     ON           R$  000000000097600000000010510000000000976000000000101900000000010420000000001021000000000104200715000000000000198400000000000202213300000000000000009999123100000010000000000000BRCAMBACNOR4125
012023080102FRAS3       010FRAS-LE     ON  EJ  N1   R$  000000000132600000000013640000000001326000000000135000000000013450000000001345000000000135300719000000000000196800000000000265752400000000000000009999123100000010000000000000BRFRASACNOR0157
012023080102GEPA3       010GER PARANAP ON           R$  000000000265000000000026500000000002650000000000265000000000026500000000002650000000000279000001000000000000000200000000000000530000000000000000009999123100000010000000000000BRGEPAACNOR2151
012023080102GEPA4       010GER PARANAP PN           R$  000000000266500000000026650000000002580000000000265200000000026570000000002601000000000269900006000000000000001300000000000003448000000000000000009999123100000010000000000000BRGEPAACNPR9158
012023080102GFSA3       010GAFISA      ON      NM   R$  000000000061200000000006460000000000602000000000062300000000006220000000000622000000000062505852000000000006034300000000003765218600000000000000009999123100000010000000000000BRGFSAACNOR3123
012023080102GGBR3       010GERDAU      ON      N1   R$  000000000263600000000026500000000002590000000000262700000000026340000000002615000000000263500163000000000000028500000000000074894800000000000000009999123100000010000000000000BRGGBRACNOR1187
012023080102GGBR4       010GERDAU      PN      N1   R$  000000000290500000000029360000000002896000000000291700000000029160000000002912000000000291823148000000000010376200000000030272552000000000000000009999123100000010000000000000BRGGBRACNPR8187
012023080102MILS3       010MILLS       ON      NM   R$  000000000124500000000012890000000001238000000000127400000000012710000000001271000000000127203850000000000000781700000000000996194300000000000000009999123100000010000000000000BRMILSACNOR2122
012023080102MLAS3       010MULTILASER  ON      NM   R$  000000000033200000000003450000000000327000000000033900000000003450000000000344000000000034503628000000000001570400000000000533371600000000000000009999123100000010000000000000BRMLASACNOR9101
012023080102MNDL3       010MUNDIAL     ON           R$  000000000589800000000059980000000005800000000000593800000000059500000000005501000000000599900031000000000000009000000000000053444000000000000000009999123100000010000000000000BRMNDLACNOR4107
012023080102MNPR3       010MINUPAR     ON           R$  000000000171600000000017160000000001703000000000170900000000017140000000001652000000000171400009000000000000001100000000000001880500000000000000009999123100000010000000000000BRMNPRACNOR5122
012023080102MOVI3       010MOVIDA      ON      NM   R$  000000000113000000000012130000000001126000000000118900000000011980000000001197000000000119912755000000000005746500000000006834798000000000000000009999123100000010000000000000BRMOVIACNOR0122
012023080102MRFG3       010MARFRIG     ON      NM   R$  000000000074000000000007620000000000733000000000075000000000007450000000000745000000000074712243000000000009124600000000006849506000000000000000009999123100000010000000000000BRMRFGACNOR0115
012023080102ALUP11      010ALUPAR      UNT     N2   R$  000000000287500000000029110000000002844000000000287000000000028830000000002881000000000288506745000000000001373600000000003943112900000000000000009999123100000010000000000000BRALUPCDAM15115
012023080102ALUP3       010ALUPAR      ON      N2   R$  000000000096900000000009710000000000947000000000095700000000009560000000000956000000000096200196000000000000028800000000000027563100000000000000009999123100000010000000000000BRALUPACNOR8115
012023080102ALUP4       010ALUPAR      PN      N2   R$  000000000097100000000009730000000000949000000000095500000000009650000000000960000000000096500291000000000000047000000000000044910400000000000000009999123100000010000000000000BRALUPACNPR5115
012023080102AMAR3       010LOJAS MARISAON      NM   R$  000000000008900000000000920000000000088000000000009000000000000920000000000091000000000009202128000000000006372400000000000578451900000000000000009999123100000010000000000000BRAMARACNOR4113
012023080102AMBP3       010AMBIPAR     ON      NM   R$  000000000210200000000021320000000002076000000000210300000000021230000000002122000000000212304003000000000000911200000000001916736600000000000000009999123100000010000000000000BRAMBPACNOR6103
012023080102ANIM3       010ANIMA       ON      NM   R$  000000000047900000000004890000000000462000000000048100000000004850000000000483000000000048507151000000000007656800000000003686475700000000000000009999123100000010000000000000BRANIMACNOR6107
012023080102APER3       010ALPER S.A.  ON      NM   R$  000000000304800000000030490000000002950000000000296600000000029600000000002950000000000296600145000000000000026600000000000078913700000000000000009999123100000010000000000000BRAPERACNOR9106
012023080102ARML3       010ARMAC       ON      NM   R$  000000000130900000000013450000000001285000000000131700000000013450000000001333000000000134503741000000000000737500000000000971577300000000000000009999123100000010000000000000BRARMLACNOR1108
012023080102ARZZ3       010AREZZO CO   ON      NM   R$  000000000820700000000082330000000007921000000000803400000000079700000000007970000000000797210173000000000002125900000000017081053100000000000000009999123100000010000000000000BRARZZACNOR3145
012023080102BBSE3       010BBSEGURIDADEON      NM   R$  000000000311200000000031390000000003098000000000312200000000031260000000003121000000000312612022000000000004036400000000012604865900000000000000009999123100000010000000000000BRBBSEACNOR5122
012023080102VIVT3       010TELEF BRASILON  EJ       R$  000000000417900000000042710000000004165000000000424000000000042400000000004240000000000425010488000000000002026500000000008592383900000000000000009999123100000010000000000000BRVIVTACNOR0174
012023080102VLID3       010VALID       ON  EJ  NM   R$  000000000152000000000015310000000001501000000000151300000000015160000000001510000000000151701326000000000000222400000000000336705800000000000000009999123100000010000000000000BRVLIDACNOR5139
012023080102TASA3       010TAURUS ARMASON      N2   R$  000000000149700000000015540000000001497000000000153000000000015310000000001527000000000153300136000000000000043400000000000066421100000000000000009999123100000010000000000000BRTASAACNOR7102
012023080102TASA4       010TAURUS ARMASPN      N2   R$  000000000148800000000015510000000001488000000000152100000000015180000000001518000000000152003616000000000001047500000000001593941300000000000000009999123100000010000000000000BRTASAACNPR4102
012023080102TCSA3       010TECNISA     ON      NM   R$  000000000037000000000003830000000000370000000000037800000000003830000000000382000000000038300337000000000000086400000000000032738500000000000000009999123100000010000000000000BRTCSAACNOR3112
012023080102TECN3       010TECHNOS     ON      NM   R$  000000000035500000000003550000000000345000000000034800000000003470000000000346000000000034700548000000000000315300000000000109940800000000000000009999123100000010000000000000BRTECNACNOR6108
012023080102TELB3       010TELEBRAS    ON           R$  000000000175100000000017510000000001670000000000169600000000016810000000001680000000000170000085000000000000018200000000000030871000000000000000009999123100000010000000000000BRTELBACNOR2140
012023080102YDUQ3       010YDUQS PART  ON      NM   R$  000000000219000000000022460000000002160000000000219400000000022300000000002230000000000223312583000000000003678700000000008071680000000000000000009999123100000010000000000000BRYDUQACNOR3103
012023080102POMO3       010MARCOPOLO   ON      N2   R$  000000000040500000000004120000000000401000000000040700000000004120000000000406000000000041200176000000000000192400000000000078337500000000000000009999123100000010000000000000BRPOMOACNOR0093
012023080102POMO4       010MARCOPOLO   PN      N2   R$  000000000052100000000005250000000000516000000000052100000000005200000000000520000000000052110901000000000004999600000000002605660200000000000000009999123100000010000000000000BRPOMOACNPR7093
012023080102PORT3       010WILSON SONS ON      NM   R$  000000000133200000000013400000000001295000000000130800000000013080000000001307000000000131501772000000000001177600000000001540580300000000000000009999123100000010000000000000BRPORTACNOR8104
012023080102POSI3       010POSITIVO TECON      NM   R$  000000000083100000000008550000000000823000000000083800000000008440000000000844000000000084603356000000000001538300000000001290374500000000000000009999123100000010000000000000BRPOSIACNOR9115
012023080102QUAL3       010QUALICORP   ON      NM   R$  000000000043000000000004340000000000422000000000042800000000004290000000000428000000000043006032000000000004878000000000002092315400000000000000009999123100000010000000000000BRQUALACNOR6119
012023080102PETR3       010PETROBRAS   ON      N2   R$  000000000347100000000034720000000003336000000000340800000000034080000000003408000000000340917968000000000019080800000000065039401300000000000000009999123100000010000000000000BRPETRACNOR9200
012023080102PETR4       010PETROBRAS   PN      N2   R$  000000000310900000000031090000000002995000000000304800000000030600000000003053000000000306072601000000000075752400000000230906678700000000000000009999123100000010000000000000BRPETRACNPR6207
012023080102PRNR3       010PRINER      ON      NM   R$  000000000118900000000012100000000001166000000000118600000000011920000000001187000000000119300605000000000000192800000000000228771600000000000000009999123100000010000000000000BRPRNRACNOR4108
012023080102PSSA3       010PORTO SEGUROON      NM   R$  000000000286000000000028600000000002808000000000282200000000028140000000002814000000000282210725000000000002256800000000006369679700000000000000009999123100000010000000000000BRPSSAACNOR7151
012023080102PTBL3       010PORTOBELLO  ON      NM   R$  000000000083600000000008560000000000827000000000084000000000008320000000000832000000000084002968000000000001509500000000001268934400000000000000009999123100000010000000000000BRPTBLACNOR8132
012023080102PTNT3       010PETTENATI   ON           R$  000000000090900000000009230000000000907000000000091300000000009150000000000915000000000092300019000000000000005600000000000005114500000000000000009999123100000010000000000000BRPTNTACNOR6041
012023080102PTNT4       010PETTENATI   PN           R$  000000000073400000000007340000000000713000000000072600000000007130000000000713000000000072500080000000000000038400000000000027904600000000000000009999123100000010000000000000BRPTNTACNPR3046
012023080102CRFB3       010CARREFOUR BRON      NM   R$  000000000135600000000014000000000001344000000000136800000000013640000000001363000000000136615950000000000005655400000000007741362800000000000000009999123100000010000000000000BRCRFBACNOR2116
012023080102CRPG5       010CRISTAL     PNA          R$  000000000437100000000044500000000004350000000000438600000000043500000000004350000000000437000070000000000000018100000000000079402200000000000000009999123100000010000000000000BRCRPGACNPA3118
012023080102CRPG6       010CRISTAL     PNB          R$  000000000320200000000033470000000003201000000000326900000000032900000000003265000000000330000062000000000000024200000000000079117000000000000000009999123100000010000000000000BRCRPGACNPB1118
012023080102CSAN3       010COSAN       ON      NM   R$  000000000198000000000019960000000001953000000000197300000000019880000000001985000000000198919582000000000008481800000000016735610100000000000000009999123100000010000000000000BRCSANACNOR6124
012023080102ESPA3       010ESPACOLASER ON      NM   R$  000000000016000000000001620000000000156000000000015800000000001570000000000157000000000015801521000000000001537700000000000243748000000000000000009999123100000010000000000000BRESPAACNOR7103
012023080102BPAC11      010BTGP BANCO  UNT     N2   R$  000000000337800000000033950000000003315000000000336100000000033800000000003379000000000338020718000000000006178300000000020768536300000000000000009999123100000010000000000000BRBPACUNT006115
012023080102BPAC3       010BTGP BANCO  ON      N2   R$  000000000164000000000016430000000001616000000000163200000000016390000000001623000000000164300016000000000000001700000000000002774500000000000000009999123100000010000000000000BRBPACACNOR7130
012023080102BPAC5       010BTGP BANCO  PNA     N2   R$  000000000085800000000008700000000000849000000000085800000000008550000000000851000000000086000023000000000000004000000000000003435600000000000000009999123100000010000000000000BRBPACACNPA0130
012023080102BPAN4       010BANCO PAN   PN      N1   R$  000000000092700000000009320000000000910000000000091700000000009200000000000920000000000092104051000000000001673400000000001536076700000000000000009999123100000010000000000000BRBPANACNPR1114
012023080102RCSL3       010RECRUSUL    ON           R$  000000000022400000000002300000000000224000000000022600000000002270000000000227000000000022800890000000000000655600000000000148579000000000000000009999123100000010000000000000BRRCSLACNOR4133
012023080102RCSL4       010RECRUSUL    PN           R$  000000000018600000000001990000000000186000000000019200000000001970000000000196000000000019702167000000000001253900000000000241016200000000000000009999123100000010000000000000BRRCSLACNPR1133
012023080102RDNI3       010RNI         ON      NM   R$  000000000058100000000005810000000000573000000000057700000000005780000000000576000000000057800005000000000000000600000000000000346400000000000000009999123100000010000000000000BRRDNIACNOR9116
012023080102RDOR3       010REDE D OR   ON      NM   R$  000000000356400000000035890000000003512000000000354600000000035510000000003540000000000355216113000000000003738100000000013257576900000000000000009999123100000010000000000000BRRDORACNOR8109
012023080102RECV3       010PETRORECSA  ON      NM   R$  000000000230000000000023080000000002254000000000227900000000022920000000002290000000000229207026000000000001673200000000003814200500000000000000009999123100000010000000000000BRRECVACNOR3104
012023080102REDE3       010REDE ENERGIAON           R$  000000000057300000000005740000000000562000000000057100000000005740000000000566000000000057300016000000000000003600000000000002059000000000000000009999123100000010000000000000BRREDEACNOR7124
012023080102RENT3       010LOCALIZA    ON      NM   R$  000000000667000000000067710000000006632000000000671400000000067500000000006740000000000675017603000000000003425900000000023004292400000000000000009999123100000010000000000000BRRENTACNOR4192
012023080102AALR3       010ALLIAR      ON      NM   R$  000000000241600000000024260000000002415000000000242100000000024230000000002423000000000242500577000000000000628700000000001522183100000000000000009999123100000010000000000000BRAALRACNOR6102
012023080102ABCB4       010ABC BRASIL  PN      N2   R$  000000000188400000000019240000000001872000000000190700000000019160000000001915000000000191805530000000000001293700000000002467461100000000000000009999123100000010000000000000BRABCBACNPR4144
012023080102SANB3       010SANTANDER BRON  EJ       R$  000000000134800000000013510000000001339000000000134400000000013430000000001343000000000134800808000000000000140300000000000188567200000000000000009999123100000010000000000000BRSANBACNOR8168
012023080102SANB4       010SANTANDER BRPN  EJ       R$  000000000150800000000015190000000001495000000000150500000000015090000000001509000000000151300873000000000000172800000000000260104900000000000000009999123100000010000000000000BRSANBACNPR5168
012023080102SAPR11      010SANEPAR     UNT     N2   R$  000000000208500000000020940000000002057000000000207700000000020930000000002090000000000209303898000000000000901900000000001874028900000000000000009999123100000010000000000000BRSAPRCDAM13116
012023080102SAPR3       010SANEPAR     ON      N2   R$  000000000040700000000004070000000000399000000000040100000000004030000000000402000000000040300616000000000000282800000000000113663100000000000000009999123100000010000000000000BRSAPRACNOR9157
012023080102SAPR4       010SANEPAR     PN      N2   R$  000000000042100000000004210000000000414000000000041800000000004200000000000419000000000042002444000000000002368300000000000989987400000000000000009999123100000010000000000000BRSAPRACNPR6157
012023080102SBFG3       010GRUPO SBF   ON      NM   R$  000000000131600000000013260000000001291000000000129900000000012910000000001291000000000129205256000000000003833500000000004981618100000000000000009999123100000010000000000000BRSBFGACNOR1102
012023080102SBSP3       010SABESP      ON      NM   R$  000000000580700000000058070000000005484000000000558500000000055700000000005568000000000557126124000000000007459900000000041667888000000000000000009999123100000010000000000000BRSBSPACNOR5160
012023080102ZAMP3       010ZAMP S.A.   ON      NM   R$  000000000044100000000004450000000000434000000000044000000000004410000000000441000000000044402472000000000000676200000000000297794200000000000000009999123100000010000000000000BRZAMPACNOR5100
012023080102VALE3       010VALE        ON      NM   R$  000000000687700000000068810000000006790000000000682600000000068200000000006820000000000682160194000000000030015700000000204909163300000000000000009999123100000010000000000000BRVALEACNOR0207
012023080102WEST3       010WESTWING    ON      NM   R$  000000000013800000000001400000000000125000000000012900000000001260000000000125000000000012601058000000000001501800000000000195111400000000000000009999123100000010000000000000BRWESTACNOR3100
012023080102WHRL3       010WHIRLPOOL   ON           R$  000000000050000000000005000000000000499000000000049900000000004990000000000492000000000049700004000000000000000800000000000000399600000000000000009999123100000010000000000000BRWHRLACNOR5127
012023080102WHRL4       010WHIRLPOOL   PN           R$  000000000050000000000005000000000000497000000000049900000000004990000000000498000000000049900013000000000000002700000000000001347500000000000000009999123100000010000000000000BRWHRLACNPR2127
012023080102INTB3       010INTELBRAS   ON      NM   R$  000000000236200000000024780000000002341000000000242000000000024070000000002407000000000241009155000000000002471900000000005982537200000000000000009999123100000010000000000000BRINTBACNOR9107
012023080102IRBR3       010IRBBRASIL REON      NM   R$  000000000412000000000041880000000004058000000000410300000000040790000000004070000000000407904666000000000001215400000000004987153200000000000000009999123100000010000000000000BRIRBRACNOR4110
012023080102LVTC3       010WDC NETWORKSON      NM   R$  000000000060100000000006080000000000572000000000058800000000005770000000000576000000000057700284000000000000083500000000000049166800000000000000009999123100000010000000000000BRLVTCACNOR4102
012023080102LWSA3       010LOCAWEB     ON      NM   R$  000000000074000000000007490000000000729000000000073900000000007410000000000741000000000074206912000000000003859900000000002855609100000000000000009999123100000010000000000000BRLWSAACNOR8103
012023080102MATD3       010MATER DEI   ON      NM   R$  000000000101300000000010400000000001006000000000102800000000010400000000001040000000000104101237000000000000233300000000000240047600000000000000009999123100000010000000000000BRMATDACNOR4103
012023080102MBLY3       010MOBLY       ON      NM   R$  000000000041700000000004220000000000388000000000039900000000003930000000000392000000000039302003000000000001543800000000000616524000000000000000009999123100000010000000000000BRMBLYACNOR5100
012023080102SANB11      010SANTANDER BRUNT EJ       R$  000000000285600000000028740000000002831000000000285300000000028630000000002862000000000286405535000000000001371000000000003911924000000000000000009999123100000010000000000000BRSANBCDAM13161
012023080102UNIP3       010UNIPAR      ON           R$  000000000751300000000075790000000007468000000000750400000000074900000000007470000000000751000094000000000000015600000000000117062800000000000000009999123100000010000000000000BRUNIPACNOR7203
012023080102UNIP6       010UNIPAR      PNB          R$  000000000809400000000082000000000007978000000000806400000000080600000000008057000000000807201324000000000000187800000000001514522200000000000000009999123100000010000000000000BRUNIPACNPB8203
012023080102USIM3       010USIMINAS    ON      N1   R$  000000000073700000000007370000000000725000000000072900000000007320000000000730000000000073200656000000000000210600000000000153615500000000000000009999123100000010000000000000BRUSIMACNOR3166
012023080102USIM5       010USIMINAS    PNA     N1   R$  000000000071900000000007240000000000712000000000071700000000007180000000000718000000000071915459000000000009550200000000006854940900000000000000009999123100000010000000000000BRUSIMACNPA6168
012023080102VSTE3       010VESTE       ON      NM   R$  000000000194600000000019500000000001896000000000192700000000019200000000001915000000000192300118000000000000017400000000000033535000000000000000009999123100000010000000000000BRVSTEACNOR5101
012023080102VULC3       010VULCABRAS   ON      NM   R$  000000000196200000000019880000000001921000000000197000000000019840000000001972000000000198502332000000000000401700000000000791621300000000000000009999123100000010000000000000BRVULCACNOR2153
012023080102ABEV3       010AMBEV S/A   ON           R$  000000000148100000000015030000000001466000000000149200000000014970000000001497000000000149819811000000000018982200000000028324758800000000000000009999123100000010000000000000BRABEVACNOR1126
012023080102BBDC3       010BRADESCO    ON      N1   R$  000000000147700000000014870000000001463000000000147400000000014800000000001480000000000148106675000000000003655700000000005389860200000000000000009999123100000010000000000000BRBBDCACNOR1758
012023080102BBDC4       010BRADESCO    PN      N1   R$  000000000165800000000016690000000001642000000000165400000000016620000000001662000000000166327941000000000026649900000000044086701300000000000000009999123100000010000000000000BRBBDCACNPR8758
012023080102BRAP3       010BRADESPAR   ON      N1   R$  000000000217300000000021730000000002157000000000216400000000021610000000002160000000000216900090000000000000017900000000000038739600000000000000009999123100000010000000000000BRBRAPACNOR5146
012023080102BRAP4       010BRADESPAR   PN      N1   R$  000000000233700000000023490000000002315000000000233800000000023400000000002339000000000234405180000000000002726000000000006373475100000000000000009999123100000010000000000000BRBRAPACNPR2146
012023080102BRBI11      010BR PARTNERS UNT     N2   R$  000000000153100000000016000000000001513000000000157900000000015500000000001550000000000155701631000000000000777700000000001228735900000000000000009999123100000010000000000000BRBRBICDAM10105
012023080102AGXY3       010AGROGALAXY  ON      NM   R$  000000000054900000000005490000000000529000000000053300000000005350000000000534000000000053500268000000000000081500000000000043471000000000000000009999123100000010000000000000BRAGXYACNOR4102
012023080102ALLD3       010ALLIED      ON      NM   R$  000000000068900000000006890000000000674000000000067800000000006770000000000677000000000068000072000000000000026900000000000018248200000000000000009999123100000010000000000000BRALLDACNOR3104
012023080102ALPA3       010ALPARGATAS  ON      N1   R$  000000000105600000000010560000000001006000000000104400000000010500000000001010000000000105000025000000000000004000000000000004177600000000000000009999123100000010000000000000BRALPAACNOR0231
012023080102ALPA4       010ALPARGATAS  PN      N1   R$  000000000096000000000009600000000000935000000000094700000000009500000000000948000000000095009719000000000003978200000000003771168900000000000000009999123100000010000000000000BRALPAACNPR7231
012023080102ALPK3       010ESTAPAR     ON      NM   R$  000000000053600000000005360000000000498000000000051700000000005150000000000509000000000051501127000000000000373400000000000193295700000000000000009999123100000010000000000000BRALPKACNOR9101
012023080102ALSO3       010ALIANSCSONAEON      NM   R$  000000000242200000000024890000000002400000000000244600000000024820000000002474000000000248215225000000000010771600000000026351650900000000000000009999123100000010000000000000BRALSOACNOR5103
012023080102BRFS3       010BRF SA      ON      NM   R$  000000000096200000000009940000000000947000000000097200000000009770000000000975000000000097718039000000000013657600000000013281813300000000000000009999123100000010000000000000BRBRFSACNOR8121
012023080102CSED3       010CRUZEIRO EDUON      NM   R$  000000000044500000000004630000000000444000000000045200000000004520000000000452000000000045301078000000000000282700000000000127871100000000000000009999123100000010000000000000BRCSEDACNOR9103
012023080102CSMG3       010COPASA      ON      NM   R$  000000000202500000000020250000000001830000000000187700000000018530000000001852000000000185317513000000000007294500000000013693987200000000000000009999123100000010000000000000BRCSMGACNOR5168
012023080102CSNA3       010SID NACIONALON           R$  000000000136900000000013870000000001356000000000137100000000013700000000001370000000000137109927000000000006328900000000008682512500000000000000009999123100000010000000000000BRCSNAACNOR6259
012023080102IFCM3       010INFRACOMM   ON      NM   R$  000000000016800000000001700000000000166000000000016700000000001660000000000166000000000016702802000000000004303500000000000721252300000000000000009999123100000010000000000000BRIFCMACNOR8101
012023080102IGTI11      010IGUATEMI S.AUNT     N1   R$  000000000217700000000022550000000002156000000000222200000000022420000000002240000000000224422491000000000005695100000000012658913800000000000000009999123100000010000000000000BRIGTICDAM16104
012023080102IGTI3       010IGUATEMI S.AON      N1   R$  000000000027500000000002870000000000275000000000028000000000002860000000000284000000000028600239000000000000153800000000000043082900000000000000009999123100000010000000000000BRIGTIACNOR8104
012023080102INEP3       010INEPAR      ON           R$  000000000045200000000004900000000000444000000000047000000000004750000000000475000000000047600581000000000000245000000000000115265000000000000000009999123100000010000000000000BRINEPACNOR1143
012023080102INEP4       010INEPAR      PN           R$  000000000036000000000003740000000000355000000000036200000000003690000000000366000000000037000218000000000000155500000000000056433000000000000000009999123100000010000000000000BRINEPACNPR8143
012023080107NUTR3       010NUTRIPLANT  ON      MA   R$  000000000045200000000004520000000000423000000000043400000000004390000000000429000000000043900015000000000000001800000000000000782000000000000000009999123100000010000000000000BRNUTRACNOR0104
012023080107TXRX4       010TEX RENAUX  PN           R$  000000000040500000000004050000000000405000000000040500000000004050000000000383000000000041900001000000000000000100000000000000040500000000000000009999123100000010000000000000BRTXRXACNPR0142
012023080108JFEN3       010JOAO FORTES ON           R$  000000000034400000000003450000000000338000000000034200000000003440000000000341000000000034400041000000000000009600000000000003288300000000000000009999123100000010000000000000BRJFENACNOR0058
012023080108NEXP3       010NEXPE       ON      NM   R$  000000000078000000000008190000000000770000000000080200000000008190000000000810000000000081900055000000000000016900000000000013560800000000000000009999123100000010000000000000BRNEXPACNOR0101
012023080108PMAM3       010PARANAPANEMAON      NM   R$  000000000056800000000005710000000000558000000000056500000000005680000000000564000000000056800149000000000000029300000000000016557100000000000000009999123100000010000000000000BRPMAMACNOR3037
012023080108RNEW11      010RENOVA      UNT     N2   R$  000000000047000000000004740000000000470000000000047200000000004720000000000471000000000047500012000000000000004100000000000001935700000000000000009999123100000010000000000000BRRNEWCDAM15110
012023080108RNEW3       010RENOVA      ON      N2   R$  000000000015400000000001550000000000151000000000015300000000001520000000000152000000000015300279000000000000193600000000000029663600000000000000009999123100000010000000000000BRRNEWACNOR8110
012023080108RNEW4       010RENOVA      PN      N2   R$  000000000016100000000001620000000000158000000000015900000000001580000000000158000000000016000235000000000000087700000000000014000000000000000000009999123100000010000000000000BRRNEWACNPR5110
012023080108HOOT4       010HOTEIS OTHONPN           R$  000000000024500000000002450000000000240000000000024000000000002420000000000240000000000024200019000000000000005100000000000001226200000000000000009999123100000010000000000000BRHOOTACNPR9015
012023080108LIGT3       010LIGHT S/A   ON      NM   R$  000000000078600000000007860000000000749000000000076100000000007590000000000757000000000075905025000000000002847500000000002167439900000000000000009999123100000010000000000000BRLIGTACNOR2124
012023080108OIBR3       010OI          ON      N1   R$  000000000010200000000001040000000000102000000000010200000000001020000000000102000000000010300977000000000007411100000000000762262400000000000000009999123100000010000000000000BROIBRACNOR1110
012023080108OIBR4       010OI          PN      N1   R$  000000000028700000000002920000000000282000000000028400000000002840000000000284000000000028600091000000000000030000000000000008540900000000000000009999123100000010000000000000BROIBRACNPR8109
012023080108ATMP3       010ATMASA      ON           R$  000000000022300000000002230000000000213000000000021600000000002130000000000213000000000021400133000000000000104000000000000022485400000000000000009999123100000010000000000000BRATMPACNOR8100
012023080108RPMG3       010PET MANGUINHON           R$  000000000028900000000002940000000000281000000000028800000000002850000000000285000000000028900039000000000000012000000000000003464800000000000000009999123100000010000000000000BRRPMGACNOR9194
012023080108RSID3       010ROSSI RESID ON      NM   R$  000000000049700000000005080000000000491000000000049900000000005080000000000493000000000050900080000000000000015700000000000007835500000000000000009999123100000010000000000000BRRSIDACNOR8120
012023080108SLED3       010SARAIVA LIVRON      N2   R$  000000000063200000000006320000000000624000000000062600000000006260000000000620000000000062600004000000000000000400000000000000250700000000000000009999123100000010000000000000BRSLEDACNOR0159
012023080108SLED4       010SARAIVA LIVRPN      N2   R$  000000000023600000000002410000000000233000000000023600000000002410000000000238000000000024100105000000000000050400000000000011933400000000000000009999123100000010000000000000BRSLEDACNPR7158
012023080108FRTA3       010POMIFRUTAS  ON      NM   R$  000000000032600000000003260000000000317000000000032200000000003170000000000318000000000032400014000000000000002400000000000000774000000000000000009999123100000010000000000000BRFRTAACNOR8103
012023080108AMER3       010AMERICANAS  ON      NM   R$  000000000011300000000001150000000000112000000000011300000000001130000000000113000000000011401029000000000004705100000000000533274800000000000000009999123100000010000000000000BRAMERACNOR6101
012023080108BDLL4       010BARDELLA    PN           R$  000000000101400000000010140000000001014000000000101400000000010140000000001010000000000102900001000000000000000200000000000000202800000000000000009999123100000010000000000000BRBDLLACNPR8151
012023080108TEKA4       010TEKA        PN           R$  000000000189600000000018960000000001676000000000173900000000018000000000001770000000000187000011000000000000001300000000000002261700000000000000009999123100000010000000000000BRTEKAACNPR3140
012023080108ETER3       010ETERNIT     ON      NM   R$  000000000107500000000010830000000001053000000000106600000000010650000000001060000000000106500798000000000000169400000000000180686700000000000000009999123100000010000000000000BRETERACNOR3240
012023080110BIOM1       010BIOMM       DIR ORD MA   R$  000000000008900000000000980000000000082000000000008800000000000840000000000084000000000008600060000000000000020000000000000001777200000000000000009999123100000010000000000000BRBIOMD09OR0110
012023080110RBIF12      010FIC FI RB ESDIR          R$  000000000003400000000000340000000000018000000000002400000000000240000000000023000000000002400333000000000000141026000000000003470726000000000000009999123100000010000000000000BRRBIFD01M11112
012023080110VIVR1       010VIVER       DIR ORD NM   R$  000000000000800000000000120000000000008000000000000900000000000090000000000009000000000001000815000000000001832700000000000017400600000000000000009999123100000010000000000000BRVIVRD16OR7119
012023080112GSFI11      010FII GENERAL CI           R$  000000000074500000000007500000000000719000000000073400000000007260000000000726000000000073700129000000000000005925000000000004349553000000000000009999123100000010000000000000BRGSFICTF009101
012023080112GTLG11      010FII GTIS LG CI  EA       R$  000000000650000000000065000000000006500000000000650000000000065000000000006496000000000650000023000000000000000178000000000001157000000000000000009999123100000010000000000000BRGTLGCTF009123
012023080112GTWR11      010FII G TOWERSCI  ER       R$  000000000839800000000084740000000008325000000000841800000000084590000000008390000000000845902109000000000000018285000000000153923278000000000000009999123100000010000000000000BRGTWRCTF003153
012023080112JCCJ11      010FII FOF JHSFCI           R$  000000001075000000000107500000000010750000000001075000000000107500000000010750000000001100000002000000000000001000000000000010750000000000000000009999123100000010000000000000BRJCCJCTF002100
012023080112JFLL11      010FII JFL LIV CI  ER       R$  000000000735400000000076440000000007353000000000742100000000074000000000007400000000000744600087000000000000000689000000000005113601000000000000009999123100000010000000000000BRJFLLCTF002130
012023080112JPPA11      010FII JPPA CRICI  ER       R$  000000000984800000000098980000000009830000000000984400000000098320000000009831000000000983200304000000000000003868000000000038078459000000000000009999123100000010000000000000BRJPPACTF005151
012023080112JSAF11      010FII JS A FINCI  ER       R$  000000000974600000000097460000000009499000000000961100000000097150000000009669000000000971400688000000000000010631000000000102176949000000000000009999123100000010000000000000BRJSAFCTF000121
012023080112JSRE11      010FII JS REAL CI  ER       R$  000000000797500000000079790000000007845000000000791700000000079290000000007914000000000792907188000000000000042445000000000336062001000000000000009999123100000010000000000000BRJSRECTF007252
012023080112KCRE11      010FII KINEA CRCI  ER       R$  000000000973800000000097550000000009550000000000968900000000096900000000009670000000000969000297000000000000006862000000000066491783000000000000009999123100000010000000000000BRKCRECTF009114
012023080112KEVE11      010FII EVEN II CI           R$  000000010789900000001078990000000107899000000010789900000001078990000000103300000000010789900001000000000000000001000000000000107899000000000000009999123100000010000000000000BRKEVECTF007109
012023080112KFOF11      010FII KINEAFOFCI  ER       R$  000000000967400000000099740000000009613000000000971900000000098050000000009802000000000980501297000000000000013848000000000134595986000000000000009999123100000010000000000000BRKFOFCTF006159
012023080112KISU11      010FII KILIMA  CI  ER       R$  000000000087400000000008800000000000868000000000087400000000008730000000000870000000000087302715000000000000083728000000000073234510000000000000009999123100000010000000000000BRKISUCTF000134
012023080112KIVO11      010FII KIVO    CI  ER       R$  000000000932200000000093220000000009114000000000919100000000091350000000009135000000000913700850000000000000005560000000000051102086000000000000009999123100000010000000000000BRKIVOCTF007117
012023080112MXRF11      010FII MAXI RENCI  ER       R$  000000000106000000000010650000000001053000000000106100000000010630000000001063000000000106429858000000000000723070000000000767404875000000000000009999123100000010000000000000BRMXRFCTF008241
012023080112NAVT11      010FII NAVI TOTCI           R$  000000000896900000000090580000000008969000000000904700000000090040000000009004000000000905700065000000000000001044000000000009445378000000000000009999123100000010000000000000BRNAVTCTF015127
012023080112NCHB11      010FII NCH BR  CI           R$  000000000852700000000085280000000008454000000000847700000000084540000000008452000000000845400348000000000000005243000000000044447961000000000000009999123100000010000000000000BRNCHBCTF000218
012023080112NCRI11      010FII NAVI CRICI           R$  000000000092800000000009340000000000921000000000092800000000009220000000000922000000000093100018000000000000000216000000000000200581000000000000009999123100000010000000000000BRNCRICTF004107
012023080112NEWL11      010FII NEWPORT CI  ER       R$  000000001144500000000114450000000011214000000001128700000000113900000000011390000000001144300080000000000000000518000000000005847043000000000000009999123100000010000000000000BRNEWLCTF004144
012023080112NEWU11      010FII NEWRU   CI  ER       R$  000000000731500000000075990000000007110000000000717700000000073110000000007311000000000759800009000000000000000081000000000000581366000000000000009999123100000010000000000000BRNEWUCTF005111
